{
  "contractName": "RiskToken",
  "abi": [
    {
      "constant": true,
      "inputs": [],
      "name": "name",
      "outputs": [
        {
          "name": "",
          "type": "string"
        }
      ],
      "payable": false,
      "stateMutability": "view",
      "type": "function"
    },
    {
      "constant": false,
      "inputs": [
        {
          "name": "spender",
          "type": "address"
        },
        {
          "name": "tokens",
          "type": "uint256"
        }
      ],
      "name": "approve",
      "outputs": [
        {
          "name": "success",
          "type": "bool"
        }
      ],
      "payable": false,
      "stateMutability": "nonpayable",
      "type": "function"
    },
    {
      "constant": true,
      "inputs": [],
      "name": "tokensDistributed",
      "outputs": [
        {
          "name": "",
          "type": "uint256"
        }
      ],
      "payable": false,
      "stateMutability": "view",
      "type": "function"
    },
    {
      "constant": true,
      "inputs": [],
      "name": "totalSupply",
      "outputs": [
        {
          "name": "",
          "type": "uint256"
        }
      ],
      "payable": false,
      "stateMutability": "view",
      "type": "function"
    },
    {
      "constant": false,
      "inputs": [
        {
          "name": "from",
          "type": "address"
        },
        {
          "name": "to",
          "type": "address"
        },
        {
          "name": "tokens",
          "type": "uint256"
        }
      ],
      "name": "transferFrom",
      "outputs": [
        {
          "name": "success",
          "type": "bool"
        }
      ],
      "payable": false,
      "stateMutability": "nonpayable",
      "type": "function"
    },
    {
      "constant": true,
      "inputs": [],
      "name": "decimals",
      "outputs": [
        {
          "name": "",
          "type": "uint8"
        }
      ],
      "payable": false,
      "stateMutability": "view",
      "type": "function"
    },
    {
      "constant": false,
      "inputs": [],
      "name": "purchaseTokens",
      "outputs": [],
      "payable": true,
      "stateMutability": "payable",
      "type": "function"
    },
    {
      "constant": false,
      "inputs": [],
      "name": "getRoundTimeLeft",
      "outputs": [
        {
          "name": "time",
          "type": "uint256"
        }
      ],
      "payable": false,
      "stateMutability": "nonpayable",
      "type": "function"
    },
    {
      "constant": true,
      "inputs": [],
      "name": "redScore",
      "outputs": [
        {
          "name": "",
          "type": "uint256"
        }
      ],
      "payable": false,
      "stateMutability": "view",
      "type": "function"
    },
    {
      "constant": true,
      "inputs": [],
      "name": "_totalSupply",
      "outputs": [
        {
          "name": "",
          "type": "uint256"
        }
      ],
      "payable": false,
      "stateMutability": "view",
      "type": "function"
    },
    {
      "constant": true,
      "inputs": [
        {
          "name": "tokenOwner",
          "type": "address"
        }
      ],
      "name": "balanceOf",
      "outputs": [
        {
          "name": "balance",
          "type": "uint256"
        }
      ],
      "payable": false,
      "stateMutability": "view",
      "type": "function"
    },
    {
      "constant": false,
      "inputs": [],
      "name": "endRound",
      "outputs": [],
      "payable": false,
      "stateMutability": "nonpayable",
      "type": "function"
    },
    {
      "constant": false,
      "inputs": [],
      "name": "acceptOwnership",
      "outputs": [],
      "payable": false,
      "stateMutability": "nonpayable",
      "type": "function"
    },
    {
      "constant": true,
      "inputs": [],
      "name": "roundLength",
      "outputs": [
        {
          "name": "",
          "type": "uint256"
        }
      ],
      "payable": false,
      "stateMutability": "view",
      "type": "function"
    },
    {
      "constant": false,
      "inputs": [],
      "name": "getTeam",
      "outputs": [
        {
          "name": "team",
          "type": "uint256"
        }
      ],
      "payable": false,
      "stateMutability": "nonpayable",
      "type": "function"
    },
    {
      "constant": true,
      "inputs": [],
      "name": "redTotalPlayers",
      "outputs": [
        {
          "name": "",
          "type": "uint256"
        }
      ],
      "payable": false,
      "stateMutability": "view",
      "type": "function"
    },
    {
      "constant": true,
      "inputs": [],
      "name": "owner",
      "outputs": [
        {
          "name": "",
          "type": "address"
        }
      ],
      "payable": false,
      "stateMutability": "view",
      "type": "function"
    },
    {
      "constant": true,
      "inputs": [],
      "name": "riskPerEth",
      "outputs": [
        {
          "name": "",
          "type": "uint256"
        }
      ],
      "payable": false,
      "stateMutability": "view",
      "type": "function"
    },
    {
      "constant": true,
      "inputs": [],
      "name": "symbol",
      "outputs": [
        {
          "name": "",
          "type": "string"
        }
      ],
      "payable": false,
      "stateMutability": "view",
      "type": "function"
    },
    {
      "constant": true,
      "inputs": [],
      "name": "lastGame",
      "outputs": [
        {
          "name": "round",
          "type": "uint256"
        },
        {
          "name": "redAmount",
          "type": "uint256"
        },
        {
          "name": "blueAmount",
          "type": "uint256"
        },
        {
          "name": "winner",
          "type": "uint8"
        },
        {
          "name": "endingTime",
          "type": "uint256"
        }
      ],
      "payable": false,
      "stateMutability": "view",
      "type": "function"
    },
    {
      "constant": true,
      "inputs": [],
      "name": "blueTotalPlayers",
      "outputs": [
        {
          "name": "",
          "type": "uint256"
        }
      ],
      "payable": false,
      "stateMutability": "view",
      "type": "function"
    },
    {
      "constant": true,
      "inputs": [],
      "name": "gameRound",
      "outputs": [
        {
          "name": "",
          "type": "uint256"
        }
      ],
      "payable": false,
      "stateMutability": "view",
      "type": "function"
    },
    {
      "constant": false,
      "inputs": [
        {
          "name": "to",
          "type": "address"
        },
        {
          "name": "tokens",
          "type": "uint256"
        }
      ],
      "name": "transfer",
      "outputs": [
        {
          "name": "success",
          "type": "bool"
        }
      ],
      "payable": false,
      "stateMutability": "nonpayable",
      "type": "function"
    },
    {
      "constant": false,
      "inputs": [],
      "name": "claimWinnings",
      "outputs": [],
      "payable": false,
      "stateMutability": "nonpayable",
      "type": "function"
    },
    {
      "constant": true,
      "inputs": [],
      "name": "blueScore",
      "outputs": [
        {
          "name": "",
          "type": "uint256"
        }
      ],
      "payable": false,
      "stateMutability": "view",
      "type": "function"
    },
    {
      "constant": true,
      "inputs": [],
      "name": "newOwner",
      "outputs": [
        {
          "name": "",
          "type": "address"
        }
      ],
      "payable": false,
      "stateMutability": "view",
      "type": "function"
    },
    {
      "constant": false,
      "inputs": [
        {
          "name": "team",
          "type": "uint256"
        },
        {
          "name": "tokensToPurchase",
          "type": "uint256"
        }
      ],
      "name": "register",
      "outputs": [],
      "payable": true,
      "stateMutability": "payable",
      "type": "function"
    },
    {
      "constant": false,
      "inputs": [
        {
          "name": "riskAmount",
          "type": "uint256"
        }
      ],
      "name": "riskIt",
      "outputs": [],
      "payable": false,
      "stateMutability": "nonpayable",
      "type": "function"
    },
    {
      "constant": true,
      "inputs": [
        {
          "name": "tokenOwner",
          "type": "address"
        },
        {
          "name": "spender",
          "type": "address"
        }
      ],
      "name": "allowance",
      "outputs": [
        {
          "name": "remaining",
          "type": "uint256"
        }
      ],
      "payable": false,
      "stateMutability": "view",
      "type": "function"
    },
    {
      "constant": false,
      "inputs": [
        {
          "name": "_newOwner",
          "type": "address"
        }
      ],
      "name": "transferOwnership",
      "outputs": [],
      "payable": false,
      "stateMutability": "nonpayable",
      "type": "function"
    },
    {
      "inputs": [],
      "payable": false,
      "stateMutability": "nonpayable",
      "type": "constructor"
    },
    {
      "anonymous": false,
      "inputs": [
        {
          "indexed": true,
          "name": "_from",
          "type": "address"
        },
        {
          "indexed": true,
          "name": "_to",
          "type": "address"
        }
      ],
      "name": "OwnershipTransferred",
      "type": "event"
    },
    {
      "anonymous": false,
      "inputs": [
        {
          "indexed": true,
          "name": "from",
          "type": "address"
        },
        {
          "indexed": true,
          "name": "to",
          "type": "address"
        },
        {
          "indexed": false,
          "name": "tokens",
          "type": "uint256"
        }
      ],
      "name": "Transfer",
      "type": "event"
    },
    {
      "anonymous": false,
      "inputs": [
        {
          "indexed": true,
          "name": "tokenOwner",
          "type": "address"
        },
        {
          "indexed": true,
          "name": "spender",
          "type": "address"
        },
        {
          "indexed": false,
          "name": "tokens",
          "type": "uint256"
        }
      ],
      "name": "Approval",
      "type": "event"
    }
  ],
  "bytecode": "0x606060405234156200001057600080fd5b336000806101000a81548173ffffffffffffffffffffffffffffffffffffffff021916908373ffffffffffffffffffffffffffffffffffffffff1602179055506040805190810160405280600381526020017f52534b0000000000000000000000000000000000000000000000000000000000815250600290805190602001906200009d929190620001c0565b506040805190810160405280600f81526020017f5269736b2047616d6520546f6b656e000000000000000000000000000000000081525060039080519060200190620000eb929190620001c0565b5060006009819055506000600a819055506000600b819055506000600c819055506000600d81905550600460009054906101000a900460ff1660ff16600a0a6103e802600e819055506000600f81905550600060108190555060016013819055506000601460030160006101000a81548160ff021916908360ff16021790555060076011819055506012600460006101000a81548160ff021916908360ff16021790555042601460040181905550600460009054906101000a900460ff1660ff16600a0a620186a0026005819055506200026f565b828054600181600116156101000203166002900490600052602060002090601f016020900481019282601f106200020357805160ff191683800117855562000234565b8280016001018555821562000234579182015b828111156200023357825182559160200191906001019062000216565b5b50905062000243919062000247565b5090565b6200026c91905b80821115620002685760008160009055506001016200024e565b5090565b90565b611ef9806200027f6000396000f300606060405260043610610180576000357c0100000000000000000000000000000000000000000000000000000000900463ffffffff16806306fdde0314610185578063095ea7b314610213578063152e84a71461026d57806318160ddd1461029657806323b872dd146102bf578063313ce567146103385780633290ce291461036757806334a424c7146103715780633e19d3d21461039a5780633eaaf86b146103c357806370a08231146103ec578063749aa2d91461043957806379ba50971461044e5780638b649b94146104635780638bce6edd1461048c5780638c5c4a25146104b55780638da5cb5b146104de57806393e9a33e1461053357806395d89b411461055c57806398afa55f146105ea578063a49134b714610635578063a5f9b5c21461065e578063a9059cbb14610687578063b401faf1146106e1578063c5eadb4c146106f6578063d4ee1d901461071f578063d66d6c1014610774578063dd15325514610795578063dd62ed3e146107b8578063f2fde38b14610824575b600080fd5b341561019057600080fd5b61019861085d565b6040518080602001828103825283818151815260200191508051906020019080838360005b838110156101d85780820151818401526020810190506101bd565b50505050905090810190601f1680156102055780820380516001836020036101000a031916815260200191505b509250505060405180910390f35b341561021e57600080fd5b610253600480803573ffffffffffffffffffffffffffffffffffffffff169060200190919080359060200190919050506108fb565b604051808215151515815260200191505060405180910390f35b341561027857600080fd5b6102806109ed565b6040518082815260200191505060405180910390f35b34156102a157600080fd5b6102a96109f3565b6040518082815260200191505060405180910390f35b34156102ca57600080fd5b61031e600480803573ffffffffffffffffffffffffffffffffffffffff1690602001909190803573ffffffffffffffffffffffffffffffffffffffff16906020019091908035906020019091905050610a3e565b604051808215151515815260200191505060405180910390f35b341561034357600080fd5b61034b610e6c565b604051808260ff1660ff16815260200191505060405180910390f35b61036f610e7f565b005b341561037c57600080fd5b610384611006565b6040518082815260200191505060405180910390f35b34156103a557600080fd5b6103ad611013565b6040518082815260200191505060405180910390f35b34156103ce57600080fd5b6103d6611019565b6040518082815260200191505060405180910390f35b34156103f757600080fd5b610423600480803573ffffffffffffffffffffffffffffffffffffffff1690602001909190505061101f565b6040518082815260200191505060405180910390f35b341561044457600080fd5b61044c611068565b005b341561045957600080fd5b61046161117c565b005b341561046e57600080fd5b61047661131b565b6040518082815260200191505060405180910390f35b341561049757600080fd5b61049f611321565b6040518082815260200191505060405180910390f35b34156104c057600080fd5b6104c8611368565b6040518082815260200191505060405180910390f35b34156104e957600080fd5b6104f161136e565b604051808273ffffffffffffffffffffffffffffffffffffffff1673ffffffffffffffffffffffffffffffffffffffff16815260200191505060405180910390f35b341561053e57600080fd5b610546611393565b6040518082815260200191505060405180910390f35b341561056757600080fd5b61056f611399565b6040518080602001828103825283818151815260200191508051906020019080838360005b838110156105af578082015181840152602081019050610594565b50505050905090810190601f1680156105dc5780820380516001836020036101000a031916815260200191505b509250505060405180910390f35b34156105f557600080fd5b6105fd611437565b604051808681526020018581526020018481526020018360ff1660ff1681526020018281526020019550505050505060405180910390f35b341561064057600080fd5b610648611468565b6040518082815260200191505060405180910390f35b341561066957600080fd5b61067161146e565b6040518082815260200191505060405180910390f35b341561069257600080fd5b6106c7600480803573ffffffffffffffffffffffffffffffffffffffff16906020019091908035906020019091905050611474565b604051808215151515815260200191505060405180910390f35b34156106ec57600080fd5b6106f4611661565b005b341561070157600080fd5b6107096118bb565b6040518082815260200191505060405180910390f35b341561072a57600080fd5b6107326118c1565b604051808273ffffffffffffffffffffffffffffffffffffffff1673ffffffffffffffffffffffffffffffffffffffff16815260200191505060405180910390f35b61079360048080359060200190919080359060200190919050506118e7565b005b34156107a057600080fd5b6107b66004808035906020019091905050611b8d565b005b34156107c357600080fd5b61080e600480803573ffffffffffffffffffffffffffffffffffffffff1690602001909190803573ffffffffffffffffffffffffffffffffffffffff16906020019091905050611d1a565b6040518082815260200191505060405180910390f35b341561082f57600080fd5b61085b600480803573ffffffffffffffffffffffffffffffffffffffff16906020019091905050611da1565b005b60038054600181600116156101000203166002900480601f0160208091040260200160405190810160405280929190818152602001828054600181600116156101000203166002900480156108f35780601f106108c8576101008083540402835291602001916108f3565b820191906000526020600020905b8154815290600101906020018083116108d657829003601f168201915b505050505081565b600081600760003373ffffffffffffffffffffffffffffffffffffffff1673ffffffffffffffffffffffffffffffffffffffff16815260200190815260200160002060008573ffffffffffffffffffffffffffffffffffffffff1673ffffffffffffffffffffffffffffffffffffffff168152602001908152602001600020819055508273ffffffffffffffffffffffffffffffffffffffff163373ffffffffffffffffffffffffffffffffffffffff167f8c5be1e5ebec7d5bd14f71427d1e84f3dd0314c0f7b2291e5b200ac8c7c3b925846040518082815260200191505060405180910390a36001905092915050565b600d5481565b6000600660008073ffffffffffffffffffffffffffffffffffffffff1673ffffffffffffffffffffffffffffffffffffffff1681526020019081526020016000205460055403905090565b600081600660008673ffffffffffffffffffffffffffffffffffffffff1673ffffffffffffffffffffffffffffffffffffffff1681526020019081526020016000205410158015610b0b575081600760008673ffffffffffffffffffffffffffffffffffffffff1673ffffffffffffffffffffffffffffffffffffffff16815260200190815260200160002060003373ffffffffffffffffffffffffffffffffffffffff1673ffffffffffffffffffffffffffffffffffffffff1681526020019081526020016000205410155b8015610b175750600082115b8015610ba25750600660008473ffffffffffffffffffffffffffffffffffffffff1673ffffffffffffffffffffffffffffffffffffffff1681526020019081526020016000205482600660008673ffffffffffffffffffffffffffffffffffffffff1673ffffffffffffffffffffffffffffffffffffffff1681526020019081526020016000205401115b15610e6057610bf982600660008773ffffffffffffffffffffffffffffffffffffffff1673ffffffffffffffffffffffffffffffffffffffff16815260200190815260200160002054611e4090919063ffffffff16565b600660008673ffffffffffffffffffffffffffffffffffffffff1673ffffffffffffffffffffffffffffffffffffffff16815260200190815260200160002081905550610ccb82600760008773ffffffffffffffffffffffffffffffffffffffff1673ffffffffffffffffffffffffffffffffffffffff16815260200190815260200160002060003373ffffffffffffffffffffffffffffffffffffffff1673ffffffffffffffffffffffffffffffffffffffff16815260200190815260200160002054611e4090919063ffffffff16565b600760008673ffffffffffffffffffffffffffffffffffffffff1673ffffffffffffffffffffffffffffffffffffffff16815260200190815260200160002060003373ffffffffffffffffffffffffffffffffffffffff1673ffffffffffffffffffffffffffffffffffffffff16815260200190815260200160002060008282540392505081905550610da682600660008673ffffffffffffffffffffffffffffffffffffffff1673ffffffffffffffffffffffffffffffffffffffff16815260200190815260200160002054611e5c90919063ffffffff16565b600660008573ffffffffffffffffffffffffffffffffffffffff1673ffffffffffffffffffffffffffffffffffffffff168152602001908152602001600020600082825401925050819055508273ffffffffffffffffffffffffffffffffffffffff168473ffffffffffffffffffffffffffffffffffffffff167fddf252ad1be2c89b69c2b068fc378daa952ba7f163c4a11628f55a4df523b3ef846040518082815260200191505060405180910390a360019050610e65565b600090505b9392505050565b600460009054906101000a900460ff1681565b6000610e96600e5434611e7890919063ffffffff16565b90506001600860003373ffffffffffffffffffffffffffffffffffffffff1673ffffffffffffffffffffffffffffffffffffffff168152602001908152602001600020541480610f2557506002600860003373ffffffffffffffffffffffffffffffffffffffff1673ffffffffffffffffffffffffffffffffffffffff16815260200190815260200160002054145b1515610f3057600080fd5b600554610f4882600d54611e5c90919063ffffffff16565b11151515610f5557600080fd5b6000809054906101000a900473ffffffffffffffffffffffffffffffffffffffff1673ffffffffffffffffffffffffffffffffffffffff166108fc349081150290604051600060405180830381858888f193505050501515610fb657600080fd5b80600660003373ffffffffffffffffffffffffffffffffffffffff1673ffffffffffffffffffffffffffffffffffffffff1681526020019081526020016000206000828254019250508190555050565b6000601460040154905090565b60095481565b60055481565b6000600660008373ffffffffffffffffffffffffffffffffffffffff1673ffffffffffffffffffffffffffffffffffffffff168152602001908152602001600020549050919050565b620151806011540260146004015401421015151561108557600080fd5b601054601460010181905550600f5460146002018190555042601460040181905550601354601460000181905550601360008154809291906001019190505550600f546010541115611107576001601460030160006101000a81548160ff021916908360ff16021790555060096000815480929190600101919050555061116a565b601054600f541115611149576002601460030160006101000a81548160ff021916908360ff160217905550600a60008154809291906001019190505550611169565b6000601460030160006101000a81548160ff021916908360ff1602179055505b5b60006010819055506000600f81905550565b600160009054906101000a900473ffffffffffffffffffffffffffffffffffffffff1673ffffffffffffffffffffffffffffffffffffffff163373ffffffffffffffffffffffffffffffffffffffff161415156111d857600080fd5b600160009054906101000a900473ffffffffffffffffffffffffffffffffffffffff1673ffffffffffffffffffffffffffffffffffffffff166000809054906101000a900473ffffffffffffffffffffffffffffffffffffffff1673ffffffffffffffffffffffffffffffffffffffff167f8be0079c531659141344cd1fd0a4f28419497f9722a3daafe3b4186f6b6457e060405160405180910390a3600160009054906101000a900473ffffffffffffffffffffffffffffffffffffffff166000806101000a81548173ffffffffffffffffffffffffffffffffffffffff021916908373ffffffffffffffffffffffffffffffffffffffff1602179055506000600160006101000a81548173ffffffffffffffffffffffffffffffffffffffff021916908373ffffffffffffffffffffffffffffffffffffffff160217905550565b60115481565b6000600860003373ffffffffffffffffffffffffffffffffffffffff1673ffffffffffffffffffffffffffffffffffffffff16815260200190815260200160002054905090565b600b5481565b6000809054906101000a900473ffffffffffffffffffffffffffffffffffffffff1681565b600e5481565b60028054600181600116156101000203166002900480601f01602080910402602001604051908101604052809291908181526020018280546001816001161561010002031660029004801561142f5780601f106114045761010080835404028352916020019161142f565b820191906000526020600020905b81548152906001019060200180831161141257829003601f168201915b505050505081565b60148060000154908060010154908060020154908060030160009054906101000a900460ff16908060040154905085565b600c5481565b60135481565b600081600660003373ffffffffffffffffffffffffffffffffffffffff1673ffffffffffffffffffffffffffffffffffffffff168152602001908152602001600020541015156116565761151082600660003373ffffffffffffffffffffffffffffffffffffffff1673ffffffffffffffffffffffffffffffffffffffff16815260200190815260200160002054611e4090919063ffffffff16565b600660003373ffffffffffffffffffffffffffffffffffffffff1673ffffffffffffffffffffffffffffffffffffffff168152602001908152602001600020819055506115a582600660008673ffffffffffffffffffffffffffffffffffffffff1673ffffffffffffffffffffffffffffffffffffffff16815260200190815260200160002054611e5c90919063ffffffff16565b600660008573ffffffffffffffffffffffffffffffffffffffff1673ffffffffffffffffffffffffffffffffffffffff168152602001908152602001600020819055508273ffffffffffffffffffffffffffffffffffffffff163373ffffffffffffffffffffffffffffffffffffffff167fddf252ad1be2c89b69c2b068fc378daa952ba7f163c4a11628f55a4df523b3ef846040518082815260200191505060405180910390a36001905061165b565b600090505b92915050565b6000806000806000601460030160009054906101000a900460ff1660ff161415151561168c57600080fd5b601260003373ffffffffffffffffffffffffffffffffffffffff1673ffffffffffffffffffffffffffffffffffffffff1681526020019081526020016000209350600860003373ffffffffffffffffffffffffffffffffffffffff1673ffffffffffffffffffffffffffffffffffffffff168152602001908152602001600020549250600160135403846000015414801561173b5750601460030160009054906101000a900460ff1660ff1683145b156118b5576000915060009050600183141561178e5761176d6014600101548560010154611ea990919063ffffffff16565b905061178760146002015482611e7890919063ffffffff16565b91506117d1565b60028314156117d0576117b36014600201548560010154611ea990919063ffffffff16565b90506117cd60146001015482611e7890919063ffffffff16565b91505b5b81846001015401600660003373ffffffffffffffffffffffffffffffffffffffff1673ffffffffffffffffffffffffffffffffffffffff168152602001908152602001600020600082825401925050819055506000601260003373ffffffffffffffffffffffffffffffffffffffff1673ffffffffffffffffffffffffffffffffffffffff168152602001908152602001600020600101819055506000601260003373ffffffffffffffffffffffffffffffffffffffff1673ffffffffffffffffffffffffffffffffffffffff168152602001908152602001600020600001819055505b50505050565b600a5481565b600160009054906101000a900473ffffffffffffffffffffffffffffffffffffffff1681565b6001600860003373ffffffffffffffffffffffffffffffffffffffff1673ffffffffffffffffffffffffffffffffffffffff168152602001908152602001600020541415801561197757506002600860003373ffffffffffffffffffffffffffffffffffffffff1673ffffffffffffffffffffffffffffffffffffffff1681526020019081526020016000205414155b151561198257600080fd5b60018214806119915750600282145b151561199c57600080fd5b806119b2600e5434611e7890919063ffffffff16565b101515156119bf57600080fd5b6005546119d782600d54611e5c90919063ffffffff16565b111515156119e457600080fd5b6000809054906101000a900473ffffffffffffffffffffffffffffffffffffffff1673ffffffffffffffffffffffffffffffffffffffff166108fc349081150290604051600060405180830381858888f193505050501515611a4557600080fd5b81600860003373ffffffffffffffffffffffffffffffffffffffff1673ffffffffffffffffffffffffffffffffffffffff168152602001908152602001600020819055506001821415611aa957600b60008154809291906001019190505550611ac6565b6002821415611ac557600c600081548092919060010191905055505b5b80600660003373ffffffffffffffffffffffffffffffffffffffff1673ffffffffffffffffffffffffffffffffffffffff1681526020019081526020016000206000828254019250508190555080600d600082825401925050819055503373ffffffffffffffffffffffffffffffffffffffff16600073ffffffffffffffffffffffffffffffffffffffff167fddf252ad1be2c89b69c2b068fc378daa952ba7f163c4a11628f55a4df523b3ef836040518082815260200191505060405180910390a35050565b60008082600660003373ffffffffffffffffffffffffffffffffffffffff1673ffffffffffffffffffffffffffffffffffffffff1681526020019081526020016000205410151515611bde57600080fd5b600860003373ffffffffffffffffffffffffffffffffffffffff1673ffffffffffffffffffffffffffffffffffffffff1681526020019081526020016000205491506001821480611c2f5750600282145b1515611c3a57600080fd5b6001821415611c585782601060008282540192505081905550611c73565b6002821415611c725782600f600082825401925050819055505b5b601260003373ffffffffffffffffffffffffffffffffffffffff1673ffffffffffffffffffffffffffffffffffffffff1681526020019081526020016000209050601354816000018190555082816001018190555082600660003373ffffffffffffffffffffffffffffffffffffffff1673ffffffffffffffffffffffffffffffffffffffff16815260200190815260200160002060008282540392505081905550505050565b6000600760008473ffffffffffffffffffffffffffffffffffffffff1673ffffffffffffffffffffffffffffffffffffffff16815260200190815260200160002060008373ffffffffffffffffffffffffffffffffffffffff1673ffffffffffffffffffffffffffffffffffffffff16815260200190815260200160002054905092915050565b6000809054906101000a900473ffffffffffffffffffffffffffffffffffffffff1673ffffffffffffffffffffffffffffffffffffffff163373ffffffffffffffffffffffffffffffffffffffff16141515611dfc57600080fd5b80600160006101000a81548173ffffffffffffffffffffffffffffffffffffffff021916908373ffffffffffffffffffffffffffffffffffffffff16021790555050565b6000828211151515611e5157600080fd5b818303905092915050565b60008183019050828110151515611e7257600080fd5b92915050565b600081830290506000831480611e985750818382811515611e9557fe5b04145b1515611ea357600080fd5b92915050565b60008082111515611eb957600080fd5b8183811515611ec457fe5b049050929150505600a165627a7a7230582007aa48cce38680766f759c1f15dc2d90c61633539f7adaf3c3382927984703ed0029",
  "source": "pragma solidity ^0.4.18;\n\n// ----------------------------------------------------------------------------\n// Risk Contract\n//\n// Based off the ERC20 Contract by BokkyPooBah\n// (c) BokkyPooBah / Bok Consulting Pty Ltd 2017. The MIT Licence.\n// ----------------------------------------------------------------------------\n\n\n// ----------------------------------------------------------------------------\n// Safe maths\n// ----------------------------------------------------------------------------\nlibrary SafeMath {\n    function add(uint a, uint b) internal pure returns (uint c) {\n        c = a + b;\n        require(c >= a);\n    }\n    function sub(uint a, uint b) internal pure returns (uint c) {\n        require(b <= a);\n        c = a - b;\n    }\n    function mul(uint a, uint b) internal pure returns (uint c) {\n        c = a * b;\n        require(a == 0 || c / a == b);\n    }\n    function div(uint a, uint b) internal pure returns (uint c) {\n        require(b > 0);\n        c = a / b;\n    }\n}\n\n\n// ----------------------------------------------------------------------------\n// ERC Token Standard #20 Interface\n// https://github.com/ethereum/EIPs/blob/master/EIPS/eip-20-token-standard.md\n// ----------------------------------------------------------------------------\ncontract ERC20Interface {\n    function totalSupply() public constant returns (uint);\n    function balanceOf(address tokenOwner) public constant returns (uint balance);\n    function allowance(address tokenOwner, address spender) public constant returns (uint remaining);\n    function transfer(address to, uint tokens) public returns (bool success);\n    function approve(address spender, uint tokens) public returns (bool success);\n    function transferFrom(address from, address to, uint tokens) public returns (bool success);\n\n    event Transfer(address indexed from, address indexed to, uint tokens);\n    event Approval(address indexed tokenOwner, address indexed spender, uint tokens);\n}\n\n// ----------------------------------------------------------------------------\n// Owned contract\n// ----------------------------------------------------------------------------\ncontract Owned {\n    address public owner;\n    address public newOwner;\n\n    event OwnershipTransferred(address indexed _from, address indexed _to);\n\n    function Owned() public {\n        owner = msg.sender;\n    }\n\n    modifier onlyOwner {\n        require(msg.sender == owner);\n        _;\n    }\n\n    function transferOwnership(address _newOwner) public onlyOwner {\n        newOwner = _newOwner;\n    }\n    function acceptOwnership() public {\n        require(msg.sender == newOwner);\n        OwnershipTransferred(owner, newOwner);\n        owner = newOwner;\n        newOwner = address(0);\n    }\n}\n\n\n// ----------------------------------------------------------------------------\n// ERC20 RISK token -> implements the ERC20 interface with added built in methods for\n// running the RISK team game.\n// ----------------------------------------------------------------------------\ncontract RiskToken is ERC20Interface, Owned {\n    using SafeMath for uint;\n\n    string public symbol;\n    string public  name;\n    uint8 public decimals;\n    uint public _totalSupply;\n\n    mapping(address => uint) balances;\n    mapping(address => mapping(address => uint)) allowed;\n\n    //Mappings,Variables and Structs needed for the game\n    //Risk struct is needed to store a players last risk. This avoids the players\n    //claiming a win from one round multiple times.\n    struct Risk {\n        uint round;\n        uint amount;\n    }\n\n    struct LastGame {\n      uint round;\n      uint redAmount;\n      uint blueAmount;\n      uint8 winner;\n      uint endingTime;\n    }\n    //Team 1 = Red, Team 2 = Blue\n    mapping(address => uint) playerTeams;\n    //Current Score for each team\n    uint public redScore;\n    uint public blueScore;\n    //Total players on each team\n    uint public redTotalPlayers;\n    uint public blueTotalPlayers;\n    uint public tokensDistributed;\n    uint public riskPerEth; //1 ETH = 1000 Risk\n    //Current amount risked on this game TODO Change to private after testing\n    uint private blueRisked;\n    uint private redRisked;\n    uint public roundLength; //round length (in days)\n    //Risked amount per player for this round\n    mapping(address => Risk) playersRisks;\n    //Game Counter\n    uint public gameRound;\n    LastGame public lastGame;\n\n    function RiskToken() public {\n        symbol = \"RSK\";\n        name = \"Risk Game Token\";\n        redScore = 0;\n        blueScore = 0;\n        redTotalPlayers = 0;\n        blueTotalPlayers = 0;\n        tokensDistributed = 0;\n        riskPerEth = 1000 * 10**uint(decimals); //multiplied to get appropriate decimal places.\n        blueRisked = 0;\n        redRisked = 0;\n        gameRound = 1;\n        lastGame.winner = 0;\n        roundLength = 7;\n        decimals = 18;\n        lastGame.endingTime = now;\n        _totalSupply = 100000 * 10**uint(decimals);\n    }\n\n    function totalSupply() public constant returns (uint) {\n        return _totalSupply  - balances[address(0)];\n    }\n\n    function balanceOf(address tokenOwner) public constant returns (uint balance) {\n        return balances[tokenOwner];\n    }\n\n    function transfer(address to, uint tokens) public returns (bool success) {\n        if (balances[msg.sender] >= tokens) {\n          balances[msg.sender] = balances[msg.sender].sub(tokens);\n          balances[to] = balances[to].add(tokens);\n          Transfer(msg.sender, to, tokens);\n          return true;\n        } else {\n          return false;\n        }\n    }\n\n    function approve(address spender, uint tokens) public returns (bool success) {\n        allowed[msg.sender][spender] = tokens;\n        Approval(msg.sender, spender, tokens);\n        return true;\n    }\n\n    function transferFrom(address from, address to, uint tokens) public returns (bool success) {\n      if (balances[from] >= tokens && allowed[from][msg.sender] >= tokens\n            && tokens > 0 && balances[to] + tokens > balances[to]) {\n          balances[from] = balances[from].sub(tokens);\n          allowed[from][msg.sender] -= allowed[from][msg.sender].sub(tokens);\n          balances[to] += balances[to].add(tokens);\n          Transfer(from, to, tokens);\n          return true;\n      } else {\n          return false;\n      }\n    }\n\n\n    function allowance(address tokenOwner, address spender) public constant returns (uint remaining) {\n        return allowed[tokenOwner][spender];\n    }\n\n    //Game Methods Below\n\n    //This is the function where the game is played. A player can risk a certain amount of tokens\n    //After the player period is finished, the team with the most risked tokens wins\n    //The risked amount will be a private variable (can be seen but troublesome to do so)\n    function riskIt(uint riskAmount)  {\n        require(balances[msg.sender] >= riskAmount);\n        var team = playerTeams[msg.sender];\n        require(team == 1 || team == 2);\n        if (team == 1) {\n          //red team\n          redRisked += riskAmount;\n        } else if (team == 2) {\n          //blue team\n          blueRisked += riskAmount;\n        }\n        //Place the players risk for this round\n        var _risk = playersRisks[msg.sender];\n        _risk.round = gameRound;\n        _risk.amount = riskAmount;\n        //Take the amount away to avoid duplicate spends\n        balances[msg.sender] -= riskAmount;\n    }\n\n    //Called by any player to end the round and allocate scores, etc.\n    function endRound() {\n      //require(now >= lastGame.endingTime + 5 * 1 minutes);\n      require(now >= (lastGame.endingTime + roundLength * 1 days)); //todo remove after testing\n      lastGame.redAmount = redRisked;\n      lastGame.blueAmount = blueRisked;\n      lastGame.endingTime = now;\n      lastGame.round = gameRound;\n      gameRound++;\n      if (redRisked > blueRisked) {\n        lastGame.winner = 1;\n        redScore++;\n      } else if (blueRisked > redRisked) {\n        lastGame.winner = 2;\n        blueScore++;\n      } else {\n        lastGame.winner = 0;\n      }\n      redRisked = 0;\n      blueRisked = 0;\n    }\n\n    //Allows a player to claim their winnings for the last round (round just ended)\n    function claimWinnings() {\n      require(lastGame.winner != 0);\n      var risk = playersRisks[msg.sender];\n      var team = playerTeams[msg.sender];\n      if (risk.round == gameRound - 1 && team == lastGame.winner) {\n        //return their amount + the fair share of the other teams winngins\n        uint extraWinnings = 0;\n        uint ratio = 0;\n        if (team == 1) {\n          //red team\n          ratio = risk.amount.div(lastGame.redAmount);\n          extraWinnings = ratio.mul(lastGame.blueAmount);\n        } else if (team == 2) {\n          //blue team\n          ratio = risk.amount.div(lastGame.blueAmount);\n          extraWinnings = ratio.mul(lastGame.redAmount);\n        }\n        balances[msg.sender] += risk.amount + extraWinnings;\n        //Reset so players cant double claimWinnings\n        playersRisks[msg.sender].amount = 0;\n        playersRisks[msg.sender].round = 0;\n      }\n    }\n\n    //Register as a player\n    function register(uint team, uint tokensToPurchase) payable {\n      require(playerTeams[msg.sender] != 1 && playerTeams[msg.sender] != 2);//require player isnt registered yet\n      require(team == 1 || team == 2);\n      require(msg.value.mul(riskPerEth) >= tokensToPurchase); //Ensure tokens match token price\n      require(tokensDistributed.add(tokensToPurchase) <= _totalSupply); //Make sure total supply hasnt been exceeded\n      //Send ETH to contract owner\n      if(!owner.send(msg.value)) {\n        throw;\n      }\n      playerTeams[msg.sender] = team; //register on red team or blue team (Red = 1, Blue = 2)\n      //Update team numbers\n      if (team == 1) {\n        redTotalPlayers++;\n      } else if (team == 2) {\n        blueTotalPlayers++;\n      }\n      balances[msg.sender] += tokensToPurchase; //Give them the tokens\n      tokensDistributed += tokensToPurchase;\n      Transfer(address(0), msg.sender, tokensToPurchase);\n    }\n\n    //Check which team you are\n    function getTeam() returns (uint team){\n      return playerTeams[msg.sender];\n    }\n\n    function getRoundTimeLeft() returns (uint time) {\n      return lastGame.endingTime;\n    }\n\n    function purchaseTokens() payable {\n      uint tokensToPurchase = msg.value.mul(riskPerEth);\n      require(playerTeams[msg.sender] == 1 || playerTeams[msg.sender] == 2); //player must be registered to buy tokens\n      require(tokensDistributed.add(tokensToPurchase) <= _totalSupply);\n      if(!owner.send(msg.value)) {\n        throw;\n      }\n      balances[msg.sender] += tokensToPurchase; //Give them the tokens\n    }\n\n}\n",
  "sourcePath": "/Users/Raymond/Desktop/Risk_Dapp/contracts/RiskToken.sol",
  "compiler": {
    "name": "solc",
    "version": "0.4.18+commit.9cf6e910.Emscripten.clang"
  },
  "schemaVersion": "1.0.1",
  "updatedAt": "2018-05-06T07:10:26.401Z"
}